{
  "abi": [
    {
      "anonymous": false,
      "inputs": [
        {
          "indexed": true,
          "internalType": "address",
          "name": "previousOwner",
          "type": "address"
        },
        {
          "indexed": true,
          "internalType": "address",
          "name": "newOwner",
          "type": "address"
        }
      ],
      "name": "OwnershipTransferred",
      "type": "event"
    },
    {
      "inputs": [
        {
          "internalType": "address",
          "name": "_token",
          "type": "address"
        }
      ],
      "name": "addAllowedTokens",
      "outputs": [],
      "stateMutability": "nonpayable",
      "type": "function"
    },
    {
      "inputs": [
        {
          "internalType": "uint256",
          "name": "",
          "type": "uint256"
        }
      ],
      "name": "allowedTokens",
      "outputs": [
        {
          "internalType": "address",
          "name": "",
          "type": "address"
        }
      ],
      "stateMutability": "view",
      "type": "function"
    },
    {
      "inputs": [
        {
          "internalType": "uint256",
          "name": "",
          "type": "uint256"
        }
      ],
      "name": "altUsers",
      "outputs": [
        {
          "internalType": "address",
          "name": "",
          "type": "address"
        }
      ],
      "stateMutability": "view",
      "type": "function"
    },
    {
      "inputs": [
        {
          "internalType": "uint256",
          "name": "",
          "type": "uint256"
        }
      ],
      "name": "bets",
      "outputs": [
        {
          "internalType": "uint256",
          "name": "side0Total",
          "type": "uint256"
        },
        {
          "internalType": "uint256",
          "name": "side1Total",
          "type": "uint256"
        },
        {
          "internalType": "uint256",
          "name": "condNum",
          "type": "uint256"
        },
        {
          "internalType": "uint256",
          "name": "expTime",
          "type": "uint256"
        },
        {
          "internalType": "uint256",
          "name": "ID",
          "type": "uint256"
        }
      ],
      "stateMutability": "view",
      "type": "function"
    },
    {
      "inputs": [],
      "name": "chainTokenPriceFeed",
      "outputs": [
        {
          "internalType": "address",
          "name": "",
          "type": "address"
        }
      ],
      "stateMutability": "view",
      "type": "function"
    },
    {
      "inputs": [
        {
          "internalType": "uint256",
          "name": "condNum",
          "type": "uint256"
        },
        {
          "internalType": "uint256",
          "name": "expTime",
          "type": "uint256"
        }
      ],
      "name": "createBet",
      "outputs": [],
      "stateMutability": "nonpayable",
      "type": "function"
    },
    {
      "inputs": [
        {
          "internalType": "uint256",
          "name": "_amount",
          "type": "uint256"
        },
        {
          "internalType": "address",
          "name": "_token",
          "type": "address"
        }
      ],
      "name": "depositTokens",
      "outputs": [],
      "stateMutability": "nonpayable",
      "type": "function"
    },
    {
      "inputs": [
        {
          "internalType": "address",
          "name": "_token",
          "type": "address"
        },
        {
          "internalType": "bool",
          "name": "isChainToken",
          "type": "bool"
        }
      ],
      "name": "getTokenValue",
      "outputs": [
        {
          "internalType": "uint256",
          "name": "",
          "type": "uint256"
        },
        {
          "internalType": "uint256",
          "name": "",
          "type": "uint256"
        }
      ],
      "stateMutability": "view",
      "type": "function"
    },
    {
      "inputs": [
        {
          "internalType": "address",
          "name": "_user",
          "type": "address"
        },
        {
          "internalType": "address",
          "name": "_token",
          "type": "address"
        },
        {
          "internalType": "bool",
          "name": "isChainToken",
          "type": "bool"
        }
      ],
      "name": "getUserSingleTokenValue",
      "outputs": [
        {
          "internalType": "uint256",
          "name": "",
          "type": "uint256"
        }
      ],
      "stateMutability": "view",
      "type": "function"
    },
    {
      "inputs": [
        {
          "internalType": "address",
          "name": "_user",
          "type": "address"
        }
      ],
      "name": "getUserTotalValue",
      "outputs": [
        {
          "internalType": "uint256",
          "name": "",
          "type": "uint256"
        }
      ],
      "stateMutability": "view",
      "type": "function"
    },
    {
      "inputs": [],
      "name": "owner",
      "outputs": [
        {
          "internalType": "address",
          "name": "",
          "type": "address"
        }
      ],
      "stateMutability": "view",
      "type": "function"
    },
    {
      "inputs": [
        {
          "internalType": "uint256",
          "name": "betID",
          "type": "uint256"
        },
        {
          "internalType": "uint256",
          "name": "amount",
          "type": "uint256"
        },
        {
          "internalType": "address",
          "name": "tokenAddress",
          "type": "address"
        }
      ],
      "name": "placeBet",
      "outputs": [],
      "stateMutability": "nonpayable",
      "type": "function"
    },
    {
      "inputs": [],
      "name": "renounceOwnership",
      "outputs": [],
      "stateMutability": "nonpayable",
      "type": "function"
    },
    {
      "inputs": [
        {
          "internalType": "address",
          "name": "_token",
          "type": "address"
        },
        {
          "internalType": "address",
          "name": "_priceFeed",
          "type": "address"
        },
        {
          "internalType": "bool",
          "name": "isChainToken",
          "type": "bool"
        }
      ],
      "name": "setPriceFeedContract",
      "outputs": [],
      "stateMutability": "nonpayable",
      "type": "function"
    },
    {
      "inputs": [
        {
          "internalType": "address",
          "name": "_token",
          "type": "address"
        }
      ],
      "name": "tokenIsAllowed",
      "outputs": [
        {
          "internalType": "bool",
          "name": "",
          "type": "bool"
        }
      ],
      "stateMutability": "view",
      "type": "function"
    },
    {
      "inputs": [
        {
          "internalType": "address",
          "name": "",
          "type": "address"
        }
      ],
      "name": "tokenPriceFeedMapping",
      "outputs": [
        {
          "internalType": "address",
          "name": "",
          "type": "address"
        }
      ],
      "stateMutability": "view",
      "type": "function"
    },
    {
      "inputs": [
        {
          "internalType": "address",
          "name": "newOwner",
          "type": "address"
        }
      ],
      "name": "transferOwnership",
      "outputs": [],
      "stateMutability": "nonpayable",
      "type": "function"
    },
    {
      "inputs": [
        {
          "internalType": "address",
          "name": "",
          "type": "address"
        }
      ],
      "name": "uniqueTokensDeposited",
      "outputs": [
        {
          "internalType": "uint256",
          "name": "",
          "type": "uint256"
        }
      ],
      "stateMutability": "view",
      "type": "function"
    },
    {
      "inputs": [
        {
          "internalType": "address",
          "name": "",
          "type": "address"
        },
        {
          "internalType": "address",
          "name": "",
          "type": "address"
        }
      ],
      "name": "userAltBalances",
      "outputs": [
        {
          "internalType": "uint256",
          "name": "",
          "type": "uint256"
        }
      ],
      "stateMutability": "view",
      "type": "function"
    },
    {
      "inputs": [
        {
          "internalType": "address",
          "name": "",
          "type": "address"
        }
      ],
      "name": "userCoreBalances",
      "outputs": [
        {
          "internalType": "uint256",
          "name": "",
          "type": "uint256"
        }
      ],
      "stateMutability": "view",
      "type": "function"
    },
    {
      "inputs": [
        {
          "internalType": "uint256",
          "name": "_amount",
          "type": "uint256"
        },
        {
          "internalType": "address",
          "name": "_token",
          "type": "address"
        }
      ],
      "name": "withdrawTokensAlt",
      "outputs": [],
      "stateMutability": "nonpayable",
      "type": "function"
    },
    {
      "inputs": [
        {
          "internalType": "uint256",
          "name": "_amount",
          "type": "uint256"
        }
      ],
      "name": "withdrawTokensCore",
      "outputs": [],
      "stateMutability": "payable",
      "type": "function"
    },
    {
      "stateMutability": "payable",
      "type": "receive"
    }
  ],
  "bytecode": "608060405234801561001057600080fd5b5061001a3361001f565b61006f565b600080546001600160a01b038381166001600160a01b0319831681178455604051919092169283917f8be0079c531659141344cd1fd0a4f28419497f9722a3daafe3b4186f6b6457e09190a35050565b6113528061007e6000396000f3fe6080604052600436106101395760003560e01c806382290526116100ab578063ce691be81161006f578063ce691be814610458578063d0a35e6614610478578063dd5b846714610498578063de30e122146104c8578063f2fde38b146104e8578063fff058e61461050857600080fd5b8063822905261461038d5780638da5cb5b146103c55780639a64c74f146103e3578063af3f5e2214610403578063cd7b75eb1461042357600080fd5b806327927b3e116100fd57806327927b3e146102b75780634f6300a2146103055780635e5f2e2614610325578063715018a61461034557806373ea55e01461035a57806374da14831461037a57600080fd5b80630204b01b1461018f5780630f2150fe146101b1578063171e44ea146101f15780632110f9141461021157806322af00fa1461023e57600080fd5b3661018a57336000908152600260205260408120805434929061015d908490610eec565b9091555050336000908152600560205260408120805460019290610182908490610eec565b925050819055005b600080fd5b34801561019b57600080fd5b506101af6101aa366004610f20565b505050565b005b3480156101bd57600080fd5b506101de6101cc366004610f55565b60056020526000908152604090205481565b6040519081526020015b60405180910390f35b3480156101fd57600080fd5b506101af61020c366004610f55565b610528565b34801561021d57600080fd5b506101de61022c366004610f55565b60026020526000908152604090205481565b34801561024a57600080fd5b5061028f610259366004610f70565b60086020528060005260406000206000915090508060020154908060050154908060060154908060070154908060080154905085565b604080519586526020860194909452928401919091526060830152608082015260a0016101e8565b3480156102c357600080fd5b506102ed6102d2366004610f55565b6006602052600090815260409020546001600160a01b031681565b6040516001600160a01b0390911681526020016101e8565b34801561031157600080fd5b506101af610320366004610f89565b6105ad565b34801561033157600080fd5b506102ed610340366004610f70565b61074f565b34801561035157600080fd5b506101af610779565b34801561036657600080fd5b506101af610375366004610f89565b6107af565b6101af610388366004610f70565b6108fd565b34801561039957600080fd5b506101de6103a8366004610fb5565b600160209081526000928352604080842090915290825290205481565b3480156103d157600080fd5b506000546001600160a01b03166102ed565b3480156103ef57600080fd5b506101af6103fe366004610fed565b61098a565b34801561040f57600080fd5b506101de61041e366004610f55565b610a0b565b34801561042f57600080fd5b5061044361043e366004611034565b610aed565b604080519283526020830191909152016101e8565b34801561046457600080fd5b506102ed610473366004610f70565b610c0c565b34801561048457600080fd5b506007546102ed906001600160a01b031681565b3480156104a457600080fd5b506104b86104b3366004610f55565b610c1c565b60405190151581526020016101e8565b3480156104d457600080fd5b506101de6104e3366004610fed565b610c85565b3480156104f457600080fd5b506101af610503366004610f55565b610d56565b34801561051457600080fd5b506101af61052336600461106b565b610df1565b6000546001600160a01b0316331461055b5760405162461bcd60e51b81526004016105529061108d565b60405180910390fd5b600380546001810182556000919091527fc2575a0e9e593c00f959f8c92f12db2869c3395a3b0502d05e2516446f71f85b0180546001600160a01b0319166001600160a01b0392909216919091179055565b600082116105cd5760405162461bcd60e51b8152600401610552906110c2565b6105d681610c1c565b6106225760405162461bcd60e51b815260206004820152601e60248201527f546f6b656e2069732063757272656e746c79206e6f7420616c6c6f77656400006044820152606401610552565b6040516323b872dd60e01b8152336004820152306024820152604481018390526001600160a01b038216906323b872dd906064016020604051808303816000875af1158015610675573d6000803e3d6000fd5b505050506040513d601f19601f8201168201806040525081019061069991906110f9565b506106a43382610e1b565b6001600160a01b03811660009081526001602090815260408083203384529091529020546106d3908390610eec565b6001600160a01b03821660009081526001602081815260408084203385528252808420949094556005905291902054900361074b57600480546001810182556000919091527f8a35acfbc15ff81a39ae7d344fd709f28e8600b4aa8c65c6b64bfe7fe36bd19b0180546001600160a01b031916331790555b5050565b6003818154811061075f57600080fd5b6000918252602090912001546001600160a01b0316905081565b6000546001600160a01b031633146107a35760405162461bcd60e51b81526004016105529061108d565b6107ad6000610e86565b565b600082116107cf5760405162461bcd60e51b8152600401610552906110c2565b6107d881610c1c565b6108245760405162461bcd60e51b815260206004820152601e60248201527f546f6b656e2069732063757272656e746c79206e6f7420616c6c6f77656400006044820152606401610552565b6001600160a01b038116600090815260016020908152604080832033845290915290205482111561085457600080fd5b6001600160a01b038116600090815260016020908152604080832033845290915281208054849290610887908490611116565b909155505060405163a9059cbb60e01b8152336004820152602481018390526001600160a01b0382169063a9059cbb906044016020604051808303816000875af11580156108d9573d6000803e3d6000fd5b505050506040513d601f19601f820116820180604052508101906101aa91906110f9565b6000811161091d5760405162461bcd60e51b8152600401610552906110c2565b3360009081526002602052604090205481111561093957600080fd5b3360009081526002602052604081208054839290610958908490611116565b9091555050604051339082156108fc029083906000818181858888f1935050505015801561074b573d6000803e3d6000fd5b6000546001600160a01b031633146109b45760405162461bcd60e51b81526004016105529061108d565b80156109dc57600780546001600160a01b0384166001600160a01b0319909116179055505050565b506001600160a01b03918216600090815260066020526040902080546001600160a01b03191691909216179055565b6001600160a01b0381166000908152600560205260408120548190610a695760405162461bcd60e51b81526020600482015260146024820152734e6f20746f6b656e73206465706f73697465642160601b6044820152606401610552565b60035415610acf5760005b600354811015610acd57610aaf8460038381548110610a9557610a9561112d565b60009182526020822001546001600160a01b031690610c85565b610ab99083610eec565b915080610ac581611143565b915050610a74565b505b610adc8360006001610c85565b610ae69082610eec565b9392505050565b60008060008315610b0a57506007546001600160a01b0316610b27565b506001600160a01b03808516600090815260066020526040902054165b60008190506000816001600160a01b031663feaf968c6040518163ffffffff1660e01b815260040160a060405180830381865afa158015610b6c573d6000803e3d6000fd5b505050506040513d601f19601f82011682018060405250810190610b909190611176565b5050509150506000826001600160a01b031663313ce5676040518163ffffffff1660e01b8152600401602060405180830381865afa158015610bd6573d6000803e3d6000fd5b505050506040513d601f19601f82011682018060405250810190610bfa91906111c6565b9195505060ff16925050509250929050565b6004818154811061075f57600080fd5b6000805b600354811015610c7c57826001600160a01b031660038281548110610c4757610c4761112d565b6000918252602090912001546001600160a01b031603610c6a5750600192915050565b80610c7481611143565b915050610c20565b50600092915050565b60008115610ce257600080610c9b856001610aed565b9092509050610cab81600a6112cf565b6001600160a01b038716600090815260026020526040902054610ccf9084906112db565b610cd991906112fa565b92505050610ae6565b6001600160a01b038416600090815260056020526040902054610d0757506000610ae6565b600080610d15856000610aed565b9092509050610d2581600a6112cf565b6001600160a01b038087166000908152600160209081526040808320938b1683529290522054610ccf9084906112db565b6000546001600160a01b03163314610d805760405162461bcd60e51b81526004016105529061108d565b6001600160a01b038116610de55760405162461bcd60e51b815260206004820152602660248201527f4f776e61626c653a206e6577206f776e657220697320746865207a65726f206160448201526564647265737360d01b6064820152608401610552565b610dee81610e86565b50565b6000546001600160a01b0316331461074b5760405162461bcd60e51b81526004016105529061108d565b6001600160a01b0380821660009081526001602090815260408083209386168352929052205461074b576001600160a01b038216600090815260056020526040902054610e69906001610eec565b6001600160a01b0383166000908152600560205260409020555050565b600080546001600160a01b038381166001600160a01b0319831681178455604051919092169283917f8be0079c531659141344cd1fd0a4f28419497f9722a3daafe3b4186f6b6457e09190a35050565b634e487b7160e01b600052601160045260246000fd5b60008219821115610eff57610eff610ed6565b500190565b80356001600160a01b0381168114610f1b57600080fd5b919050565b600080600060608486031215610f3557600080fd5b8335925060208401359150610f4c60408501610f04565b90509250925092565b600060208284031215610f6757600080fd5b610ae682610f04565b600060208284031215610f8257600080fd5b5035919050565b60008060408385031215610f9c57600080fd5b82359150610fac60208401610f04565b90509250929050565b60008060408385031215610fc857600080fd5b610fd183610f04565b9150610fac60208401610f04565b8015158114610dee57600080fd5b60008060006060848603121561100257600080fd5b61100b84610f04565b925061101960208501610f04565b9150604084013561102981610fdf565b809150509250925092565b6000806040838503121561104757600080fd5b61105083610f04565b9150602083013561106081610fdf565b809150509250929050565b6000806040838503121561107e57600080fd5b50508035926020909101359150565b6020808252818101527f4f776e61626c653a2063616c6c6572206973206e6f7420746865206f776e6572604082015260600190565b6020808252601a908201527f416d6f756e74206d757374206265206d6f7265207468616e2030000000000000604082015260600190565b60006020828403121561110b57600080fd5b8151610ae681610fdf565b60008282101561112857611128610ed6565b500390565b634e487b7160e01b600052603260045260246000fd5b60006001820161115557611155610ed6565b5060010190565b805169ffffffffffffffffffff81168114610f1b57600080fd5b600080600080600060a0868803121561118e57600080fd5b6111978661115c565b94506020860151935060408601519250606086015191506111ba6080870161115c565b90509295509295909350565b6000602082840312156111d857600080fd5b815160ff81168114610ae657600080fd5b600181815b8085111561122457816000190482111561120a5761120a610ed6565b8085161561121757918102915b93841c93908002906111ee565b509250929050565b60008261123b575060016112c9565b81611248575060006112c9565b816001811461125e576002811461126857611284565b60019150506112c9565b60ff84111561127957611279610ed6565b50506001821b6112c9565b5060208310610133831016604e8410600b84101617156112a7575081810a6112c9565b6112b183836111e9565b80600019048211156112c5576112c5610ed6565b0290505b92915050565b6000610ae6838361122c565b60008160001904831182151516156112f5576112f5610ed6565b500290565b60008261131757634e487b7160e01b600052601260045260246000fd5b50049056fea26469706673582212208b7089ec8d55b0dc4e06143552cbf7c71a2a4fcbcfc7f8ec1414431e0d07549b64736f6c634300080d0033",
  "bytecodeSha1": "6c0ff703e958086ca4c35edd04c4955f5bc514c4",
  "compiler": {
    "evm_version": "istanbul",
    "optimizer": {
      "enabled": true,
      "runs": 200
    },
    "version": "0.8.13+commit.abaa5c0e"
  },
  "contractName": "BetContract",
  "language": "Solidity",
  "natspec": {
    "kind": "dev",
    "methods": {
      "owner()": {
        "details": "Returns the address of the current owner."
      },
      "renounceOwnership()": {
        "details": "Leaves the contract without owner. It will not be possible to call `onlyOwner` functions anymore. Can only be called by the current owner. NOTE: Renouncing ownership will leave the contract without an owner, thereby removing any functionality that is only available to the owner."
      },
      "transferOwnership(address)": {
        "details": "Transfers ownership of the contract to a new account (`newOwner`). Can only be called by the current owner."
      }
    },
    "version": 1
  },
  "opcodes": "PUSH1 0x80 PUSH1 0x40 MSTORE PUSH1 0x4 CALLDATASIZE LT PUSH2 0x139 JUMPI PUSH1 0x0 CALLDATALOAD PUSH1 0xE0 SHR DUP1 PUSH4 0x82290526 GT PUSH2 0xAB JUMPI DUP1 PUSH4 0xCE691BE8 GT PUSH2 0x6F JUMPI DUP1 PUSH4 0xCE691BE8 EQ PUSH2 0x458 JUMPI DUP1 PUSH4 0xD0A35E66 EQ PUSH2 0x478 JUMPI DUP1 PUSH4 0xDD5B8467 EQ PUSH2 0x498 JUMPI DUP1 PUSH4 0xDE30E122 EQ PUSH2 0x4C8 JUMPI DUP1 PUSH4 0xF2FDE38B EQ PUSH2 0x4E8 JUMPI DUP1 PUSH4 0xFFF058E6 EQ PUSH2 0x508 JUMPI PUSH1 0x0 DUP1 REVERT JUMPDEST DUP1 PUSH4 0x82290526 EQ PUSH2 0x38D JUMPI DUP1 PUSH4 0x8DA5CB5B EQ PUSH2 0x3C5 JUMPI DUP1 PUSH4 0x9A64C74F EQ PUSH2 0x3E3 JUMPI DUP1 PUSH4 0xAF3F5E22 EQ PUSH2 0x403 JUMPI DUP1 PUSH4 0xCD7B75EB EQ PUSH2 0x423 JUMPI PUSH1 0x0 DUP1 REVERT JUMPDEST DUP1 PUSH4 0x27927B3E GT PUSH2 0xFD JUMPI DUP1 PUSH4 0x27927B3E EQ PUSH2 0x2B7 JUMPI DUP1 PUSH4 0x4F6300A2 EQ PUSH2 0x305 JUMPI DUP1 PUSH4 0x5E5F2E26 EQ PUSH2 0x325 JUMPI DUP1 PUSH4 0x715018A6 EQ PUSH2 0x345 JUMPI DUP1 PUSH4 0x73EA55E0 EQ PUSH2 0x35A JUMPI DUP1 PUSH4 0x74DA1483 EQ PUSH2 0x37A JUMPI PUSH1 0x0 DUP1 REVERT JUMPDEST DUP1 PUSH4 0x204B01B EQ PUSH2 0x18F JUMPI DUP1 PUSH4 0xF2150FE EQ PUSH2 0x1B1 JUMPI DUP1 PUSH4 0x171E44EA EQ PUSH2 0x1F1 JUMPI DUP1 PUSH4 0x2110F914 EQ PUSH2 0x211 JUMPI DUP1 PUSH4 0x22AF00FA EQ PUSH2 0x23E JUMPI PUSH1 0x0 DUP1 REVERT JUMPDEST CALLDATASIZE PUSH2 0x18A JUMPI CALLER PUSH1 0x0 SWAP1 DUP2 MSTORE PUSH1 0x2 PUSH1 0x20 MSTORE PUSH1 0x40 DUP2 KECCAK256 DUP1 SLOAD CALLVALUE SWAP3 SWAP1 PUSH2 0x15D SWAP1 DUP5 SWAP1 PUSH2 0xEEC JUMP JUMPDEST SWAP1 SWAP2 SSTORE POP POP CALLER PUSH1 0x0 SWAP1 DUP2 MSTORE PUSH1 0x5 PUSH1 0x20 MSTORE PUSH1 0x40 DUP2 KECCAK256 DUP1 SLOAD PUSH1 0x1 SWAP3 SWAP1 PUSH2 0x182 SWAP1 DUP5 SWAP1 PUSH2 0xEEC JUMP JUMPDEST SWAP3 POP POP DUP2 SWAP1 SSTORE STOP JUMPDEST PUSH1 0x0 DUP1 REVERT JUMPDEST CALLVALUE DUP1 ISZERO PUSH2 0x19B JUMPI PUSH1 0x0 DUP1 REVERT JUMPDEST POP PUSH2 0x1AF PUSH2 0x1AA CALLDATASIZE PUSH1 0x4 PUSH2 0xF20 JUMP JUMPDEST POP POP POP JUMP JUMPDEST STOP JUMPDEST CALLVALUE DUP1 ISZERO PUSH2 0x1BD JUMPI PUSH1 0x0 DUP1 REVERT JUMPDEST POP PUSH2 0x1DE PUSH2 0x1CC CALLDATASIZE PUSH1 0x4 PUSH2 0xF55 JUMP JUMPDEST PUSH1 0x5 PUSH1 0x20 MSTORE PUSH1 0x0 SWAP1 DUP2 MSTORE PUSH1 0x40 SWAP1 KECCAK256 SLOAD DUP2 JUMP JUMPDEST PUSH1 0x40 MLOAD SWAP1 DUP2 MSTORE PUSH1 0x20 ADD JUMPDEST PUSH1 0x40 MLOAD DUP1 SWAP2 SUB SWAP1 RETURN JUMPDEST CALLVALUE DUP1 ISZERO PUSH2 0x1FD JUMPI PUSH1 0x0 DUP1 REVERT JUMPDEST POP PUSH2 0x1AF PUSH2 0x20C CALLDATASIZE PUSH1 0x4 PUSH2 0xF55 JUMP JUMPDEST PUSH2 0x528 JUMP JUMPDEST CALLVALUE DUP1 ISZERO PUSH2 0x21D JUMPI PUSH1 0x0 DUP1 REVERT JUMPDEST POP PUSH2 0x1DE PUSH2 0x22C CALLDATASIZE PUSH1 0x4 PUSH2 0xF55 JUMP JUMPDEST PUSH1 0x2 PUSH1 0x20 MSTORE PUSH1 0x0 SWAP1 DUP2 MSTORE PUSH1 0x40 SWAP1 KECCAK256 SLOAD DUP2 JUMP JUMPDEST CALLVALUE DUP1 ISZERO PUSH2 0x24A JUMPI PUSH1 0x0 DUP1 REVERT JUMPDEST POP PUSH2 0x28F PUSH2 0x259 CALLDATASIZE PUSH1 0x4 PUSH2 0xF70 JUMP JUMPDEST PUSH1 0x8 PUSH1 0x20 MSTORE DUP1 PUSH1 0x0 MSTORE PUSH1 0x40 PUSH1 0x0 KECCAK256 PUSH1 0x0 SWAP2 POP SWAP1 POP DUP1 PUSH1 0x2 ADD SLOAD SWAP1 DUP1 PUSH1 0x5 ADD SLOAD SWAP1 DUP1 PUSH1 0x6 ADD SLOAD SWAP1 DUP1 PUSH1 0x7 ADD SLOAD SWAP1 DUP1 PUSH1 0x8 ADD SLOAD SWAP1 POP DUP6 JUMP JUMPDEST PUSH1 0x40 DUP1 MLOAD SWAP6 DUP7 MSTORE PUSH1 0x20 DUP7 ADD SWAP5 SWAP1 SWAP5 MSTORE SWAP3 DUP5 ADD SWAP2 SWAP1 SWAP2 MSTORE PUSH1 0x60 DUP4 ADD MSTORE PUSH1 0x80 DUP3 ADD MSTORE PUSH1 0xA0 ADD PUSH2 0x1E8 JUMP JUMPDEST CALLVALUE DUP1 ISZERO PUSH2 0x2C3 JUMPI PUSH1 0x0 DUP1 REVERT JUMPDEST POP PUSH2 0x2ED PUSH2 0x2D2 CALLDATASIZE PUSH1 0x4 PUSH2 0xF55 JUMP JUMPDEST PUSH1 0x6 PUSH1 0x20 MSTORE PUSH1 0x0 SWAP1 DUP2 MSTORE PUSH1 0x40 SWAP1 KECCAK256 SLOAD PUSH1 0x1 PUSH1 0x1 PUSH1 0xA0 SHL SUB AND DUP2 JUMP JUMPDEST PUSH1 0x40 MLOAD PUSH1 0x1 PUSH1 0x1 PUSH1 0xA0 SHL SUB SWAP1 SWAP2 AND DUP2 MSTORE PUSH1 0x20 ADD PUSH2 0x1E8 JUMP JUMPDEST CALLVALUE DUP1 ISZERO PUSH2 0x311 JUMPI PUSH1 0x0 DUP1 REVERT JUMPDEST POP PUSH2 0x1AF PUSH2 0x320 CALLDATASIZE PUSH1 0x4 PUSH2 0xF89 JUMP JUMPDEST PUSH2 0x5AD JUMP JUMPDEST CALLVALUE DUP1 ISZERO PUSH2 0x331 JUMPI PUSH1 0x0 DUP1 REVERT JUMPDEST POP PUSH2 0x2ED PUSH2 0x340 CALLDATASIZE PUSH1 0x4 PUSH2 0xF70 JUMP JUMPDEST PUSH2 0x74F JUMP JUMPDEST CALLVALUE DUP1 ISZERO PUSH2 0x351 JUMPI PUSH1 0x0 DUP1 REVERT JUMPDEST POP PUSH2 0x1AF PUSH2 0x779 JUMP JUMPDEST CALLVALUE DUP1 ISZERO PUSH2 0x366 JUMPI PUSH1 0x0 DUP1 REVERT JUMPDEST POP PUSH2 0x1AF PUSH2 0x375 CALLDATASIZE PUSH1 0x4 PUSH2 0xF89 JUMP JUMPDEST PUSH2 0x7AF JUMP JUMPDEST PUSH2 0x1AF PUSH2 0x388 CALLDATASIZE PUSH1 0x4 PUSH2 0xF70 JUMP JUMPDEST PUSH2 0x8FD JUMP JUMPDEST CALLVALUE DUP1 ISZERO PUSH2 0x399 JUMPI PUSH1 0x0 DUP1 REVERT JUMPDEST POP PUSH2 0x1DE PUSH2 0x3A8 CALLDATASIZE PUSH1 0x4 PUSH2 0xFB5 JUMP JUMPDEST PUSH1 0x1 PUSH1 0x20 SWAP1 DUP2 MSTORE PUSH1 0x0 SWAP3 DUP4 MSTORE PUSH1 0x40 DUP1 DUP5 KECCAK256 SWAP1 SWAP2 MSTORE SWAP1 DUP3 MSTORE SWAP1 KECCAK256 SLOAD DUP2 JUMP JUMPDEST CALLVALUE DUP1 ISZERO PUSH2 0x3D1 JUMPI PUSH1 0x0 DUP1 REVERT JUMPDEST POP PUSH1 0x0 SLOAD PUSH1 0x1 PUSH1 0x1 PUSH1 0xA0 SHL SUB AND PUSH2 0x2ED JUMP JUMPDEST CALLVALUE DUP1 ISZERO PUSH2 0x3EF JUMPI PUSH1 0x0 DUP1 REVERT JUMPDEST POP PUSH2 0x1AF PUSH2 0x3FE CALLDATASIZE PUSH1 0x4 PUSH2 0xFED JUMP JUMPDEST PUSH2 0x98A JUMP JUMPDEST CALLVALUE DUP1 ISZERO PUSH2 0x40F JUMPI PUSH1 0x0 DUP1 REVERT JUMPDEST POP PUSH2 0x1DE PUSH2 0x41E CALLDATASIZE PUSH1 0x4 PUSH2 0xF55 JUMP JUMPDEST PUSH2 0xA0B JUMP JUMPDEST CALLVALUE DUP1 ISZERO PUSH2 0x42F JUMPI PUSH1 0x0 DUP1 REVERT JUMPDEST POP PUSH2 0x443 PUSH2 0x43E CALLDATASIZE PUSH1 0x4 PUSH2 0x1034 JUMP JUMPDEST PUSH2 0xAED JUMP JUMPDEST PUSH1 0x40 DUP1 MLOAD SWAP3 DUP4 MSTORE PUSH1 0x20 DUP4 ADD SWAP2 SWAP1 SWAP2 MSTORE ADD PUSH2 0x1E8 JUMP JUMPDEST CALLVALUE DUP1 ISZERO PUSH2 0x464 JUMPI PUSH1 0x0 DUP1 REVERT JUMPDEST POP PUSH2 0x2ED PUSH2 0x473 CALLDATASIZE PUSH1 0x4 PUSH2 0xF70 JUMP JUMPDEST PUSH2 0xC0C JUMP JUMPDEST CALLVALUE DUP1 ISZERO PUSH2 0x484 JUMPI PUSH1 0x0 DUP1 REVERT JUMPDEST POP PUSH1 0x7 SLOAD PUSH2 0x2ED SWAP1 PUSH1 0x1 PUSH1 0x1 PUSH1 0xA0 SHL SUB AND DUP2 JUMP JUMPDEST CALLVALUE DUP1 ISZERO PUSH2 0x4A4 JUMPI PUSH1 0x0 DUP1 REVERT JUMPDEST POP PUSH2 0x4B8 PUSH2 0x4B3 CALLDATASIZE PUSH1 0x4 PUSH2 0xF55 JUMP JUMPDEST PUSH2 0xC1C JUMP JUMPDEST PUSH1 0x40 MLOAD SWAP1 ISZERO ISZERO DUP2 MSTORE PUSH1 0x20 ADD PUSH2 0x1E8 JUMP JUMPDEST CALLVALUE DUP1 ISZERO PUSH2 0x4D4 JUMPI PUSH1 0x0 DUP1 REVERT JUMPDEST POP PUSH2 0x1DE PUSH2 0x4E3 CALLDATASIZE PUSH1 0x4 PUSH2 0xFED JUMP JUMPDEST PUSH2 0xC85 JUMP JUMPDEST CALLVALUE DUP1 ISZERO PUSH2 0x4F4 JUMPI PUSH1 0x0 DUP1 REVERT JUMPDEST POP PUSH2 0x1AF PUSH2 0x503 CALLDATASIZE PUSH1 0x4 PUSH2 0xF55 JUMP JUMPDEST PUSH2 0xD56 JUMP JUMPDEST CALLVALUE DUP1 ISZERO PUSH2 0x514 JUMPI PUSH1 0x0 DUP1 REVERT JUMPDEST POP PUSH2 0x1AF PUSH2 0x523 CALLDATASIZE PUSH1 0x4 PUSH2 0x106B JUMP JUMPDEST PUSH2 0xDF1 JUMP JUMPDEST PUSH1 0x0 SLOAD PUSH1 0x1 PUSH1 0x1 PUSH1 0xA0 SHL SUB AND CALLER EQ PUSH2 0x55B JUMPI PUSH1 0x40 MLOAD PUSH3 0x461BCD PUSH1 0xE5 SHL DUP2 MSTORE PUSH1 0x4 ADD PUSH2 0x552 SWAP1 PUSH2 0x108D JUMP JUMPDEST PUSH1 0x40 MLOAD DUP1 SWAP2 SUB SWAP1 REVERT JUMPDEST PUSH1 0x3 DUP1 SLOAD PUSH1 0x1 DUP2 ADD DUP3 SSTORE PUSH1 0x0 SWAP2 SWAP1 SWAP2 MSTORE PUSH32 0xC2575A0E9E593C00F959F8C92F12DB2869C3395A3B0502D05E2516446F71F85B ADD DUP1 SLOAD PUSH1 0x1 PUSH1 0x1 PUSH1 0xA0 SHL SUB NOT AND PUSH1 0x1 PUSH1 0x1 PUSH1 0xA0 SHL SUB SWAP3 SWAP1 SWAP3 AND SWAP2 SWAP1 SWAP2 OR SWAP1 SSTORE JUMP JUMPDEST PUSH1 0x0 DUP3 GT PUSH2 0x5CD JUMPI PUSH1 0x40 MLOAD PUSH3 0x461BCD PUSH1 0xE5 SHL DUP2 MSTORE PUSH1 0x4 ADD PUSH2 0x552 SWAP1 PUSH2 0x10C2 JUMP JUMPDEST PUSH2 0x5D6 DUP2 PUSH2 0xC1C JUMP JUMPDEST PUSH2 0x622 JUMPI PUSH1 0x40 MLOAD PUSH3 0x461BCD PUSH1 0xE5 SHL DUP2 MSTORE PUSH1 0x20 PUSH1 0x4 DUP3 ADD MSTORE PUSH1 0x1E PUSH1 0x24 DUP3 ADD MSTORE PUSH32 0x546F6B656E2069732063757272656E746C79206E6F7420616C6C6F7765640000 PUSH1 0x44 DUP3 ADD MSTORE PUSH1 0x64 ADD PUSH2 0x552 JUMP JUMPDEST PUSH1 0x40 MLOAD PUSH4 0x23B872DD PUSH1 0xE0 SHL DUP2 MSTORE CALLER PUSH1 0x4 DUP3 ADD MSTORE ADDRESS PUSH1 0x24 DUP3 ADD MSTORE PUSH1 0x44 DUP2 ADD DUP4 SWAP1 MSTORE PUSH1 0x1 PUSH1 0x1 PUSH1 0xA0 SHL SUB DUP3 AND SWAP1 PUSH4 0x23B872DD SWAP1 PUSH1 0x64 ADD PUSH1 0x20 PUSH1 0x40 MLOAD DUP1 DUP4 SUB DUP2 PUSH1 0x0 DUP8 GAS CALL ISZERO DUP1 ISZERO PUSH2 0x675 JUMPI RETURNDATASIZE PUSH1 0x0 DUP1 RETURNDATACOPY RETURNDATASIZE PUSH1 0x0 REVERT JUMPDEST POP POP POP POP PUSH1 0x40 MLOAD RETURNDATASIZE PUSH1 0x1F NOT PUSH1 0x1F DUP3 ADD AND DUP3 ADD DUP1 PUSH1 0x40 MSTORE POP DUP2 ADD SWAP1 PUSH2 0x699 SWAP2 SWAP1 PUSH2 0x10F9 JUMP JUMPDEST POP PUSH2 0x6A4 CALLER DUP3 PUSH2 0xE1B JUMP JUMPDEST PUSH1 0x1 PUSH1 0x1 PUSH1 0xA0 SHL SUB DUP2 AND PUSH1 0x0 SWAP1 DUP2 MSTORE PUSH1 0x1 PUSH1 0x20 SWAP1 DUP2 MSTORE PUSH1 0x40 DUP1 DUP4 KECCAK256 CALLER DUP5 MSTORE SWAP1 SWAP2 MSTORE SWAP1 KECCAK256 SLOAD PUSH2 0x6D3 SWAP1 DUP4 SWAP1 PUSH2 0xEEC JUMP JUMPDEST PUSH1 0x1 PUSH1 0x1 PUSH1 0xA0 SHL SUB DUP3 AND PUSH1 0x0 SWAP1 DUP2 MSTORE PUSH1 0x1 PUSH1 0x20 DUP2 DUP2 MSTORE PUSH1 0x40 DUP1 DUP5 KECCAK256 CALLER DUP6 MSTORE DUP3 MSTORE DUP1 DUP5 KECCAK256 SWAP5 SWAP1 SWAP5 SSTORE PUSH1 0x5 SWAP1 MSTORE SWAP2 SWAP1 KECCAK256 SLOAD SWAP1 SUB PUSH2 0x74B JUMPI PUSH1 0x4 DUP1 SLOAD PUSH1 0x1 DUP2 ADD DUP3 SSTORE PUSH1 0x0 SWAP2 SWAP1 SWAP2 MSTORE PUSH32 0x8A35ACFBC15FF81A39AE7D344FD709F28E8600B4AA8C65C6B64BFE7FE36BD19B ADD DUP1 SLOAD PUSH1 0x1 PUSH1 0x1 PUSH1 0xA0 SHL SUB NOT AND CALLER OR SWAP1 SSTORE JUMPDEST POP POP JUMP JUMPDEST PUSH1 0x3 DUP2 DUP2 SLOAD DUP2 LT PUSH2 0x75F JUMPI PUSH1 0x0 DUP1 REVERT JUMPDEST PUSH1 0x0 SWAP2 DUP3 MSTORE PUSH1 0x20 SWAP1 SWAP2 KECCAK256 ADD SLOAD PUSH1 0x1 PUSH1 0x1 PUSH1 0xA0 SHL SUB AND SWAP1 POP DUP2 JUMP JUMPDEST PUSH1 0x0 SLOAD PUSH1 0x1 PUSH1 0x1 PUSH1 0xA0 SHL SUB AND CALLER EQ PUSH2 0x7A3 JUMPI PUSH1 0x40 MLOAD PUSH3 0x461BCD PUSH1 0xE5 SHL DUP2 MSTORE PUSH1 0x4 ADD PUSH2 0x552 SWAP1 PUSH2 0x108D JUMP JUMPDEST PUSH2 0x7AD PUSH1 0x0 PUSH2 0xE86 JUMP JUMPDEST JUMP JUMPDEST PUSH1 0x0 DUP3 GT PUSH2 0x7CF JUMPI PUSH1 0x40 MLOAD PUSH3 0x461BCD PUSH1 0xE5 SHL DUP2 MSTORE PUSH1 0x4 ADD PUSH2 0x552 SWAP1 PUSH2 0x10C2 JUMP JUMPDEST PUSH2 0x7D8 DUP2 PUSH2 0xC1C JUMP JUMPDEST PUSH2 0x824 JUMPI PUSH1 0x40 MLOAD PUSH3 0x461BCD PUSH1 0xE5 SHL DUP2 MSTORE PUSH1 0x20 PUSH1 0x4 DUP3 ADD MSTORE PUSH1 0x1E PUSH1 0x24 DUP3 ADD MSTORE PUSH32 0x546F6B656E2069732063757272656E746C79206E6F7420616C6C6F7765640000 PUSH1 0x44 DUP3 ADD MSTORE PUSH1 0x64 ADD PUSH2 0x552 JUMP JUMPDEST PUSH1 0x1 PUSH1 0x1 PUSH1 0xA0 SHL SUB DUP2 AND PUSH1 0x0 SWAP1 DUP2 MSTORE PUSH1 0x1 PUSH1 0x20 SWAP1 DUP2 MSTORE PUSH1 0x40 DUP1 DUP4 KECCAK256 CALLER DUP5 MSTORE SWAP1 SWAP2 MSTORE SWAP1 KECCAK256 SLOAD DUP3 GT ISZERO PUSH2 0x854 JUMPI PUSH1 0x0 DUP1 REVERT JUMPDEST PUSH1 0x1 PUSH1 0x1 PUSH1 0xA0 SHL SUB DUP2 AND PUSH1 0x0 SWAP1 DUP2 MSTORE PUSH1 0x1 PUSH1 0x20 SWAP1 DUP2 MSTORE PUSH1 0x40 DUP1 DUP4 KECCAK256 CALLER DUP5 MSTORE SWAP1 SWAP2 MSTORE DUP2 KECCAK256 DUP1 SLOAD DUP5 SWAP3 SWAP1 PUSH2 0x887 SWAP1 DUP5 SWAP1 PUSH2 0x1116 JUMP JUMPDEST SWAP1 SWAP2 SSTORE POP POP PUSH1 0x40 MLOAD PUSH4 0xA9059CBB PUSH1 0xE0 SHL DUP2 MSTORE CALLER PUSH1 0x4 DUP3 ADD MSTORE PUSH1 0x24 DUP2 ADD DUP4 SWAP1 MSTORE PUSH1 0x1 PUSH1 0x1 PUSH1 0xA0 SHL SUB DUP3 AND SWAP1 PUSH4 0xA9059CBB SWAP1 PUSH1 0x44 ADD PUSH1 0x20 PUSH1 0x40 MLOAD DUP1 DUP4 SUB DUP2 PUSH1 0x0 DUP8 GAS CALL ISZERO DUP1 ISZERO PUSH2 0x8D9 JUMPI RETURNDATASIZE PUSH1 0x0 DUP1 RETURNDATACOPY RETURNDATASIZE PUSH1 0x0 REVERT JUMPDEST POP POP POP POP PUSH1 0x40 MLOAD RETURNDATASIZE PUSH1 0x1F NOT PUSH1 0x1F DUP3 ADD AND DUP3 ADD DUP1 PUSH1 0x40 MSTORE POP DUP2 ADD SWAP1 PUSH2 0x1AA SWAP2 SWAP1 PUSH2 0x10F9 JUMP JUMPDEST PUSH1 0x0 DUP2 GT PUSH2 0x91D JUMPI PUSH1 0x40 MLOAD PUSH3 0x461BCD PUSH1 0xE5 SHL DUP2 MSTORE PUSH1 0x4 ADD PUSH2 0x552 SWAP1 PUSH2 0x10C2 JUMP JUMPDEST CALLER PUSH1 0x0 SWAP1 DUP2 MSTORE PUSH1 0x2 PUSH1 0x20 MSTORE PUSH1 0x40 SWAP1 KECCAK256 SLOAD DUP2 GT ISZERO PUSH2 0x939 JUMPI PUSH1 0x0 DUP1 REVERT JUMPDEST CALLER PUSH1 0x0 SWAP1 DUP2 MSTORE PUSH1 0x2 PUSH1 0x20 MSTORE PUSH1 0x40 DUP2 KECCAK256 DUP1 SLOAD DUP4 SWAP3 SWAP1 PUSH2 0x958 SWAP1 DUP5 SWAP1 PUSH2 0x1116 JUMP JUMPDEST SWAP1 SWAP2 SSTORE POP POP PUSH1 0x40 MLOAD CALLER SWAP1 DUP3 ISZERO PUSH2 0x8FC MUL SWAP1 DUP4 SWAP1 PUSH1 0x0 DUP2 DUP2 DUP2 DUP6 DUP9 DUP9 CALL SWAP4 POP POP POP POP ISZERO DUP1 ISZERO PUSH2 0x74B JUMPI RETURNDATASIZE PUSH1 0x0 DUP1 RETURNDATACOPY RETURNDATASIZE PUSH1 0x0 REVERT JUMPDEST PUSH1 0x0 SLOAD PUSH1 0x1 PUSH1 0x1 PUSH1 0xA0 SHL SUB AND CALLER EQ PUSH2 0x9B4 JUMPI PUSH1 0x40 MLOAD PUSH3 0x461BCD PUSH1 0xE5 SHL DUP2 MSTORE PUSH1 0x4 ADD PUSH2 0x552 SWAP1 PUSH2 0x108D JUMP JUMPDEST DUP1 ISZERO PUSH2 0x9DC JUMPI PUSH1 0x7 DUP1 SLOAD PUSH1 0x1 PUSH1 0x1 PUSH1 0xA0 SHL SUB DUP5 AND PUSH1 0x1 PUSH1 0x1 PUSH1 0xA0 SHL SUB NOT SWAP1 SWAP2 AND OR SWAP1 SSTORE POP POP POP JUMP JUMPDEST POP PUSH1 0x1 PUSH1 0x1 PUSH1 0xA0 SHL SUB SWAP2 DUP3 AND PUSH1 0x0 SWAP1 DUP2 MSTORE PUSH1 0x6 PUSH1 0x20 MSTORE PUSH1 0x40 SWAP1 KECCAK256 DUP1 SLOAD PUSH1 0x1 PUSH1 0x1 PUSH1 0xA0 SHL SUB NOT AND SWAP2 SWAP1 SWAP3 AND OR SWAP1 SSTORE JUMP JUMPDEST PUSH1 0x1 PUSH1 0x1 PUSH1 0xA0 SHL SUB DUP2 AND PUSH1 0x0 SWAP1 DUP2 MSTORE PUSH1 0x5 PUSH1 0x20 MSTORE PUSH1 0x40 DUP2 KECCAK256 SLOAD DUP2 SWAP1 PUSH2 0xA69 JUMPI PUSH1 0x40 MLOAD PUSH3 0x461BCD PUSH1 0xE5 SHL DUP2 MSTORE PUSH1 0x20 PUSH1 0x4 DUP3 ADD MSTORE PUSH1 0x14 PUSH1 0x24 DUP3 ADD MSTORE PUSH20 0x4E6F20746F6B656E73206465706F736974656421 PUSH1 0x60 SHL PUSH1 0x44 DUP3 ADD MSTORE PUSH1 0x64 ADD PUSH2 0x552 JUMP JUMPDEST PUSH1 0x3 SLOAD ISZERO PUSH2 0xACF JUMPI PUSH1 0x0 JUMPDEST PUSH1 0x3 SLOAD DUP2 LT ISZERO PUSH2 0xACD JUMPI PUSH2 0xAAF DUP5 PUSH1 0x3 DUP4 DUP2 SLOAD DUP2 LT PUSH2 0xA95 JUMPI PUSH2 0xA95 PUSH2 0x112D JUMP JUMPDEST PUSH1 0x0 SWAP2 DUP3 MSTORE PUSH1 0x20 DUP3 KECCAK256 ADD SLOAD PUSH1 0x1 PUSH1 0x1 PUSH1 0xA0 SHL SUB AND SWAP1 PUSH2 0xC85 JUMP JUMPDEST PUSH2 0xAB9 SWAP1 DUP4 PUSH2 0xEEC JUMP JUMPDEST SWAP2 POP DUP1 PUSH2 0xAC5 DUP2 PUSH2 0x1143 JUMP JUMPDEST SWAP2 POP POP PUSH2 0xA74 JUMP JUMPDEST POP JUMPDEST PUSH2 0xADC DUP4 PUSH1 0x0 PUSH1 0x1 PUSH2 0xC85 JUMP JUMPDEST PUSH2 0xAE6 SWAP1 DUP3 PUSH2 0xEEC JUMP JUMPDEST SWAP4 SWAP3 POP POP POP JUMP JUMPDEST PUSH1 0x0 DUP1 PUSH1 0x0 DUP4 ISZERO PUSH2 0xB0A JUMPI POP PUSH1 0x7 SLOAD PUSH1 0x1 PUSH1 0x1 PUSH1 0xA0 SHL SUB AND PUSH2 0xB27 JUMP JUMPDEST POP PUSH1 0x1 PUSH1 0x1 PUSH1 0xA0 SHL SUB DUP1 DUP6 AND PUSH1 0x0 SWAP1 DUP2 MSTORE PUSH1 0x6 PUSH1 0x20 MSTORE PUSH1 0x40 SWAP1 KECCAK256 SLOAD AND JUMPDEST PUSH1 0x0 DUP2 SWAP1 POP PUSH1 0x0 DUP2 PUSH1 0x1 PUSH1 0x1 PUSH1 0xA0 SHL SUB AND PUSH4 0xFEAF968C PUSH1 0x40 MLOAD DUP2 PUSH4 0xFFFFFFFF AND PUSH1 0xE0 SHL DUP2 MSTORE PUSH1 0x4 ADD PUSH1 0xA0 PUSH1 0x40 MLOAD DUP1 DUP4 SUB DUP2 DUP7 GAS STATICCALL ISZERO DUP1 ISZERO PUSH2 0xB6C JUMPI RETURNDATASIZE PUSH1 0x0 DUP1 RETURNDATACOPY RETURNDATASIZE PUSH1 0x0 REVERT JUMPDEST POP POP POP POP PUSH1 0x40 MLOAD RETURNDATASIZE PUSH1 0x1F NOT PUSH1 0x1F DUP3 ADD AND DUP3 ADD DUP1 PUSH1 0x40 MSTORE POP DUP2 ADD SWAP1 PUSH2 0xB90 SWAP2 SWAP1 PUSH2 0x1176 JUMP JUMPDEST POP POP POP SWAP2 POP POP PUSH1 0x0 DUP3 PUSH1 0x1 PUSH1 0x1 PUSH1 0xA0 SHL SUB AND PUSH4 0x313CE567 PUSH1 0x40 MLOAD DUP2 PUSH4 0xFFFFFFFF AND PUSH1 0xE0 SHL DUP2 MSTORE PUSH1 0x4 ADD PUSH1 0x20 PUSH1 0x40 MLOAD DUP1 DUP4 SUB DUP2 DUP7 GAS STATICCALL ISZERO DUP1 ISZERO PUSH2 0xBD6 JUMPI RETURNDATASIZE PUSH1 0x0 DUP1 RETURNDATACOPY RETURNDATASIZE PUSH1 0x0 REVERT JUMPDEST POP POP POP POP PUSH1 0x40 MLOAD RETURNDATASIZE PUSH1 0x1F NOT PUSH1 0x1F DUP3 ADD AND DUP3 ADD DUP1 PUSH1 0x40 MSTORE POP DUP2 ADD SWAP1 PUSH2 0xBFA SWAP2 SWAP1 PUSH2 0x11C6 JUMP JUMPDEST SWAP2 SWAP6 POP POP PUSH1 0xFF AND SWAP3 POP POP POP SWAP3 POP SWAP3 SWAP1 POP JUMP JUMPDEST PUSH1 0x4 DUP2 DUP2 SLOAD DUP2 LT PUSH2 0x75F JUMPI PUSH1 0x0 DUP1 REVERT JUMPDEST PUSH1 0x0 DUP1 JUMPDEST PUSH1 0x3 SLOAD DUP2 LT ISZERO PUSH2 0xC7C JUMPI DUP3 PUSH1 0x1 PUSH1 0x1 PUSH1 0xA0 SHL SUB AND PUSH1 0x3 DUP3 DUP2 SLOAD DUP2 LT PUSH2 0xC47 JUMPI PUSH2 0xC47 PUSH2 0x112D JUMP JUMPDEST PUSH1 0x0 SWAP2 DUP3 MSTORE PUSH1 0x20 SWAP1 SWAP2 KECCAK256 ADD SLOAD PUSH1 0x1 PUSH1 0x1 PUSH1 0xA0 SHL SUB AND SUB PUSH2 0xC6A JUMPI POP PUSH1 0x1 SWAP3 SWAP2 POP POP JUMP JUMPDEST DUP1 PUSH2 0xC74 DUP2 PUSH2 0x1143 JUMP JUMPDEST SWAP2 POP POP PUSH2 0xC20 JUMP JUMPDEST POP PUSH1 0x0 SWAP3 SWAP2 POP POP JUMP JUMPDEST PUSH1 0x0 DUP2 ISZERO PUSH2 0xCE2 JUMPI PUSH1 0x0 DUP1 PUSH2 0xC9B DUP6 PUSH1 0x1 PUSH2 0xAED JUMP JUMPDEST SWAP1 SWAP3 POP SWAP1 POP PUSH2 0xCAB DUP2 PUSH1 0xA PUSH2 0x12CF JUMP JUMPDEST PUSH1 0x1 PUSH1 0x1 PUSH1 0xA0 SHL SUB DUP8 AND PUSH1 0x0 SWAP1 DUP2 MSTORE PUSH1 0x2 PUSH1 0x20 MSTORE PUSH1 0x40 SWAP1 KECCAK256 SLOAD PUSH2 0xCCF SWAP1 DUP5 SWAP1 PUSH2 0x12DB JUMP JUMPDEST PUSH2 0xCD9 SWAP2 SWAP1 PUSH2 0x12FA JUMP JUMPDEST SWAP3 POP POP POP PUSH2 0xAE6 JUMP JUMPDEST PUSH1 0x1 PUSH1 0x1 PUSH1 0xA0 SHL SUB DUP5 AND PUSH1 0x0 SWAP1 DUP2 MSTORE PUSH1 0x5 PUSH1 0x20 MSTORE PUSH1 0x40 SWAP1 KECCAK256 SLOAD PUSH2 0xD07 JUMPI POP PUSH1 0x0 PUSH2 0xAE6 JUMP JUMPDEST PUSH1 0x0 DUP1 PUSH2 0xD15 DUP6 PUSH1 0x0 PUSH2 0xAED JUMP JUMPDEST SWAP1 SWAP3 POP SWAP1 POP PUSH2 0xD25 DUP2 PUSH1 0xA PUSH2 0x12CF JUMP JUMPDEST PUSH1 0x1 PUSH1 0x1 PUSH1 0xA0 SHL SUB DUP1 DUP8 AND PUSH1 0x0 SWAP1 DUP2 MSTORE PUSH1 0x1 PUSH1 0x20 SWAP1 DUP2 MSTORE PUSH1 0x40 DUP1 DUP4 KECCAK256 SWAP4 DUP12 AND DUP4 MSTORE SWAP3 SWAP1 MSTORE KECCAK256 SLOAD PUSH2 0xCCF SWAP1 DUP5 SWAP1 PUSH2 0x12DB JUMP JUMPDEST PUSH1 0x0 SLOAD PUSH1 0x1 PUSH1 0x1 PUSH1 0xA0 SHL SUB AND CALLER EQ PUSH2 0xD80 JUMPI PUSH1 0x40 MLOAD PUSH3 0x461BCD PUSH1 0xE5 SHL DUP2 MSTORE PUSH1 0x4 ADD PUSH2 0x552 SWAP1 PUSH2 0x108D JUMP JUMPDEST PUSH1 0x1 PUSH1 0x1 PUSH1 0xA0 SHL SUB DUP2 AND PUSH2 0xDE5 JUMPI PUSH1 0x40 MLOAD PUSH3 0x461BCD PUSH1 0xE5 SHL DUP2 MSTORE PUSH1 0x20 PUSH1 0x4 DUP3 ADD MSTORE PUSH1 0x26 PUSH1 0x24 DUP3 ADD MSTORE PUSH32 0x4F776E61626C653A206E6577206F776E657220697320746865207A65726F2061 PUSH1 0x44 DUP3 ADD MSTORE PUSH6 0x646472657373 PUSH1 0xD0 SHL PUSH1 0x64 DUP3 ADD MSTORE PUSH1 0x84 ADD PUSH2 0x552 JUMP JUMPDEST PUSH2 0xDEE DUP2 PUSH2 0xE86 JUMP JUMPDEST POP JUMP JUMPDEST PUSH1 0x0 SLOAD PUSH1 0x1 PUSH1 0x1 PUSH1 0xA0 SHL SUB AND CALLER EQ PUSH2 0x74B JUMPI PUSH1 0x40 MLOAD PUSH3 0x461BCD PUSH1 0xE5 SHL DUP2 MSTORE PUSH1 0x4 ADD PUSH2 0x552 SWAP1 PUSH2 0x108D JUMP JUMPDEST PUSH1 0x1 PUSH1 0x1 PUSH1 0xA0 SHL SUB DUP1 DUP3 AND PUSH1 0x0 SWAP1 DUP2 MSTORE PUSH1 0x1 PUSH1 0x20 SWAP1 DUP2 MSTORE PUSH1 0x40 DUP1 DUP4 KECCAK256 SWAP4 DUP7 AND DUP4 MSTORE SWAP3 SWAP1 MSTORE KECCAK256 SLOAD PUSH2 0x74B JUMPI PUSH1 0x1 PUSH1 0x1 PUSH1 0xA0 SHL SUB DUP3 AND PUSH1 0x0 SWAP1 DUP2 MSTORE PUSH1 0x5 PUSH1 0x20 MSTORE PUSH1 0x40 SWAP1 KECCAK256 SLOAD PUSH2 0xE69 SWAP1 PUSH1 0x1 PUSH2 0xEEC JUMP JUMPDEST PUSH1 0x1 PUSH1 0x1 PUSH1 0xA0 SHL SUB DUP4 AND PUSH1 0x0 SWAP1 DUP2 MSTORE PUSH1 0x5 PUSH1 0x20 MSTORE PUSH1 0x40 SWAP1 KECCAK256 SSTORE POP POP JUMP JUMPDEST PUSH1 0x0 DUP1 SLOAD PUSH1 0x1 PUSH1 0x1 PUSH1 0xA0 SHL SUB DUP4 DUP2 AND PUSH1 0x1 PUSH1 0x1 PUSH1 0xA0 SHL SUB NOT DUP4 AND DUP2 OR DUP5 SSTORE PUSH1 0x40 MLOAD SWAP2 SWAP1 SWAP3 AND SWAP3 DUP4 SWAP2 PUSH32 0x8BE0079C531659141344CD1FD0A4F28419497F9722A3DAAFE3B4186F6B6457E0 SWAP2 SWAP1 LOG3 POP POP JUMP JUMPDEST PUSH4 0x4E487B71 PUSH1 0xE0 SHL PUSH1 0x0 MSTORE PUSH1 0x11 PUSH1 0x4 MSTORE PUSH1 0x24 PUSH1 0x0 REVERT JUMPDEST PUSH1 0x0 DUP3 NOT DUP3 GT ISZERO PUSH2 0xEFF JUMPI PUSH2 0xEFF PUSH2 0xED6 JUMP JUMPDEST POP ADD SWAP1 JUMP JUMPDEST DUP1 CALLDATALOAD PUSH1 0x1 PUSH1 0x1 PUSH1 0xA0 SHL SUB DUP2 AND DUP2 EQ PUSH2 0xF1B JUMPI PUSH1 0x0 DUP1 REVERT JUMPDEST SWAP2 SWAP1 POP JUMP JUMPDEST PUSH1 0x0 DUP1 PUSH1 0x0 PUSH1 0x60 DUP5 DUP7 SUB SLT ISZERO PUSH2 0xF35 JUMPI PUSH1 0x0 DUP1 REVERT JUMPDEST DUP4 CALLDATALOAD SWAP3 POP PUSH1 0x20 DUP5 ADD CALLDATALOAD SWAP2 POP PUSH2 0xF4C PUSH1 0x40 DUP6 ADD PUSH2 0xF04 JUMP JUMPDEST SWAP1 POP SWAP3 POP SWAP3 POP SWAP3 JUMP JUMPDEST PUSH1 0x0 PUSH1 0x20 DUP3 DUP5 SUB SLT ISZERO PUSH2 0xF67 JUMPI PUSH1 0x0 DUP1 REVERT JUMPDEST PUSH2 0xAE6 DUP3 PUSH2 0xF04 JUMP JUMPDEST PUSH1 0x0 PUSH1 0x20 DUP3 DUP5 SUB SLT ISZERO PUSH2 0xF82 JUMPI PUSH1 0x0 DUP1 REVERT JUMPDEST POP CALLDATALOAD SWAP2 SWAP1 POP JUMP JUMPDEST PUSH1 0x0 DUP1 PUSH1 0x40 DUP4 DUP6 SUB SLT ISZERO PUSH2 0xF9C JUMPI PUSH1 0x0 DUP1 REVERT JUMPDEST DUP3 CALLDATALOAD SWAP2 POP PUSH2 0xFAC PUSH1 0x20 DUP5 ADD PUSH2 0xF04 JUMP JUMPDEST SWAP1 POP SWAP3 POP SWAP3 SWAP1 POP JUMP JUMPDEST PUSH1 0x0 DUP1 PUSH1 0x40 DUP4 DUP6 SUB SLT ISZERO PUSH2 0xFC8 JUMPI PUSH1 0x0 DUP1 REVERT JUMPDEST PUSH2 0xFD1 DUP4 PUSH2 0xF04 JUMP JUMPDEST SWAP2 POP PUSH2 0xFAC PUSH1 0x20 DUP5 ADD PUSH2 0xF04 JUMP JUMPDEST DUP1 ISZERO ISZERO DUP2 EQ PUSH2 0xDEE JUMPI PUSH1 0x0 DUP1 REVERT JUMPDEST PUSH1 0x0 DUP1 PUSH1 0x0 PUSH1 0x60 DUP5 DUP7 SUB SLT ISZERO PUSH2 0x1002 JUMPI PUSH1 0x0 DUP1 REVERT JUMPDEST PUSH2 0x100B DUP5 PUSH2 0xF04 JUMP JUMPDEST SWAP3 POP PUSH2 0x1019 PUSH1 0x20 DUP6 ADD PUSH2 0xF04 JUMP JUMPDEST SWAP2 POP PUSH1 0x40 DUP5 ADD CALLDATALOAD PUSH2 0x1029 DUP2 PUSH2 0xFDF JUMP JUMPDEST DUP1 SWAP2 POP POP SWAP3 POP SWAP3 POP SWAP3 JUMP JUMPDEST PUSH1 0x0 DUP1 PUSH1 0x40 DUP4 DUP6 SUB SLT ISZERO PUSH2 0x1047 JUMPI PUSH1 0x0 DUP1 REVERT JUMPDEST PUSH2 0x1050 DUP4 PUSH2 0xF04 JUMP JUMPDEST SWAP2 POP PUSH1 0x20 DUP4 ADD CALLDATALOAD PUSH2 0x1060 DUP2 PUSH2 0xFDF JUMP JUMPDEST DUP1 SWAP2 POP POP SWAP3 POP SWAP3 SWAP1 POP JUMP JUMPDEST PUSH1 0x0 DUP1 PUSH1 0x40 DUP4 DUP6 SUB SLT ISZERO PUSH2 0x107E JUMPI PUSH1 0x0 DUP1 REVERT JUMPDEST POP POP DUP1 CALLDATALOAD SWAP3 PUSH1 0x20 SWAP1 SWAP2 ADD CALLDATALOAD SWAP2 POP JUMP JUMPDEST PUSH1 0x20 DUP1 DUP3 MSTORE DUP2 DUP2 ADD MSTORE PUSH32 0x4F776E61626C653A2063616C6C6572206973206E6F7420746865206F776E6572 PUSH1 0x40 DUP3 ADD MSTORE PUSH1 0x60 ADD SWAP1 JUMP JUMPDEST PUSH1 0x20 DUP1 DUP3 MSTORE PUSH1 0x1A SWAP1 DUP3 ADD MSTORE PUSH32 0x416D6F756E74206D757374206265206D6F7265207468616E2030000000000000 PUSH1 0x40 DUP3 ADD MSTORE PUSH1 0x60 ADD SWAP1 JUMP JUMPDEST PUSH1 0x0 PUSH1 0x20 DUP3 DUP5 SUB SLT ISZERO PUSH2 0x110B JUMPI PUSH1 0x0 DUP1 REVERT JUMPDEST DUP2 MLOAD PUSH2 0xAE6 DUP2 PUSH2 0xFDF JUMP JUMPDEST PUSH1 0x0 DUP3 DUP3 LT ISZERO PUSH2 0x1128 JUMPI PUSH2 0x1128 PUSH2 0xED6 JUMP JUMPDEST POP SUB SWAP1 JUMP JUMPDEST PUSH4 0x4E487B71 PUSH1 0xE0 SHL PUSH1 0x0 MSTORE PUSH1 0x32 PUSH1 0x4 MSTORE PUSH1 0x24 PUSH1 0x0 REVERT JUMPDEST PUSH1 0x0 PUSH1 0x1 DUP3 ADD PUSH2 0x1155 JUMPI PUSH2 0x1155 PUSH2 0xED6 JUMP JUMPDEST POP PUSH1 0x1 ADD SWAP1 JUMP JUMPDEST DUP1 MLOAD PUSH10 0xFFFFFFFFFFFFFFFFFFFF DUP2 AND DUP2 EQ PUSH2 0xF1B JUMPI PUSH1 0x0 DUP1 REVERT JUMPDEST PUSH1 0x0 DUP1 PUSH1 0x0 DUP1 PUSH1 0x0 PUSH1 0xA0 DUP7 DUP9 SUB SLT ISZERO PUSH2 0x118E JUMPI PUSH1 0x0 DUP1 REVERT JUMPDEST PUSH2 0x1197 DUP7 PUSH2 0x115C JUMP JUMPDEST SWAP5 POP PUSH1 0x20 DUP7 ADD MLOAD SWAP4 POP PUSH1 0x40 DUP7 ADD MLOAD SWAP3 POP PUSH1 0x60 DUP7 ADD MLOAD SWAP2 POP PUSH2 0x11BA PUSH1 0x80 DUP8 ADD PUSH2 0x115C JUMP JUMPDEST SWAP1 POP SWAP3 SWAP6 POP SWAP3 SWAP6 SWAP1 SWAP4 POP JUMP JUMPDEST PUSH1 0x0 PUSH1 0x20 DUP3 DUP5 SUB SLT ISZERO PUSH2 0x11D8 JUMPI PUSH1 0x0 DUP1 REVERT JUMPDEST DUP2 MLOAD PUSH1 0xFF DUP2 AND DUP2 EQ PUSH2 0xAE6 JUMPI PUSH1 0x0 DUP1 REVERT JUMPDEST PUSH1 0x1 DUP2 DUP2 JUMPDEST DUP1 DUP6 GT ISZERO PUSH2 0x1224 JUMPI DUP2 PUSH1 0x0 NOT DIV DUP3 GT ISZERO PUSH2 0x120A JUMPI PUSH2 0x120A PUSH2 0xED6 JUMP JUMPDEST DUP1 DUP6 AND ISZERO PUSH2 0x1217 JUMPI SWAP2 DUP2 MUL SWAP2 JUMPDEST SWAP4 DUP5 SHR SWAP4 SWAP1 DUP1 MUL SWAP1 PUSH2 0x11EE JUMP JUMPDEST POP SWAP3 POP SWAP3 SWAP1 POP JUMP JUMPDEST PUSH1 0x0 DUP3 PUSH2 0x123B JUMPI POP PUSH1 0x1 PUSH2 0x12C9 JUMP JUMPDEST DUP2 PUSH2 0x1248 JUMPI POP PUSH1 0x0 PUSH2 0x12C9 JUMP JUMPDEST DUP2 PUSH1 0x1 DUP2 EQ PUSH2 0x125E JUMPI PUSH1 0x2 DUP2 EQ PUSH2 0x1268 JUMPI PUSH2 0x1284 JUMP JUMPDEST PUSH1 0x1 SWAP2 POP POP PUSH2 0x12C9 JUMP JUMPDEST PUSH1 0xFF DUP5 GT ISZERO PUSH2 0x1279 JUMPI PUSH2 0x1279 PUSH2 0xED6 JUMP JUMPDEST POP POP PUSH1 0x1 DUP3 SHL PUSH2 0x12C9 JUMP JUMPDEST POP PUSH1 0x20 DUP4 LT PUSH2 0x133 DUP4 LT AND PUSH1 0x4E DUP5 LT PUSH1 0xB DUP5 LT AND OR ISZERO PUSH2 0x12A7 JUMPI POP DUP2 DUP2 EXP PUSH2 0x12C9 JUMP JUMPDEST PUSH2 0x12B1 DUP4 DUP4 PUSH2 0x11E9 JUMP JUMPDEST DUP1 PUSH1 0x0 NOT DIV DUP3 GT ISZERO PUSH2 0x12C5 JUMPI PUSH2 0x12C5 PUSH2 0xED6 JUMP JUMPDEST MUL SWAP1 POP JUMPDEST SWAP3 SWAP2 POP POP JUMP JUMPDEST PUSH1 0x0 PUSH2 0xAE6 DUP4 DUP4 PUSH2 0x122C JUMP JUMPDEST PUSH1 0x0 DUP2 PUSH1 0x0 NOT DIV DUP4 GT DUP3 ISZERO ISZERO AND ISZERO PUSH2 0x12F5 JUMPI PUSH2 0x12F5 PUSH2 0xED6 JUMP JUMPDEST POP MUL SWAP1 JUMP JUMPDEST PUSH1 0x0 DUP3 PUSH2 0x1317 JUMPI PUSH4 0x4E487B71 PUSH1 0xE0 SHL PUSH1 0x0 MSTORE PUSH1 0x12 PUSH1 0x4 MSTORE PUSH1 0x24 PUSH1 0x0 REVERT JUMPDEST POP DIV SWAP1 JUMP INVALID LOG2 PUSH5 0x6970667358 0x22 SLT KECCAK256 DUP12 PUSH17 0x89EC8D55B0DC4E06143552CBF7C71A2A4F 0xCB 0xCF 0xC7 0xF8 0xEC EQ EQ NUMBER 0x1E 0xD SMOD SLOAD SWAP12 PUSH5 0x736F6C6343 STOP ADDMOD 0xD STOP CALLER ",
  "sha1": "5721ef5dbed93e9d02cd5a56d74dd1f276a105f4",
  "source": "// SPDX-License-Identifier: MIT\n//used https://github.com/PatrickAlphaC/defi-stake-yield-brownie-freecode as a reference for some parts\npragma solidity 0.8.13;\n\nimport \"@openzeppelin/contracts/access/Ownable.sol\";\nimport \"@openzeppelin/contracts/token/ERC20/IERC20.sol\";\nimport \"@chainlink/contracts/src/v0.8/interfaces/AggregatorV3Interface.sol\";\n\ncontract BetContract is Ownable {\n    // mapping token address -> user address -> amount\n    mapping(address => mapping(address => uint256)) public userAltBalances;\n    mapping(address => uint256) public userCoreBalances;\n    address[] public allowedTokens;\n    address[] public altUsers;\n    mapping(address => uint256) public uniqueTokensDeposited;\n    mapping(address => address) public tokenPriceFeedMapping;\n    address public chainTokenPriceFeed;\n\n    //the recieve function takes care of users depositing the core chain token\n    function depositTokens(uint256 _amount, address _token) public {\n        require(_amount > 0, \"Amount must be more than 0\");\n        require(tokenIsAllowed(_token), \"Token is currently not allowed\");\n        //problem here is we have to pay gas for this transaction...will have to change it so user does this transaction.\n        IERC20(_token).transferFrom(msg.sender, address(this), _amount);\n        updateUniqueTokensDeposited(msg.sender, _token);\n        userAltBalances[_token][msg.sender] =\n            userAltBalances[_token][msg.sender] +\n            _amount;\n        if (uniqueTokensDeposited[msg.sender] == 1) {\n            altUsers.push(msg.sender);\n        }\n    }\n\n    //withdraw function for users to remove tokens from the platform\n    function withdrawTokensAlt(uint256 _amount, address _token) public {\n        require(_amount > 0, \"Amount must be more than 0\");\n        require(tokenIsAllowed(_token), \"Token is currently not allowed\");\n        //check if user has enough amount of token deposited\n        require(userAltBalances[_token][msg.sender] >= _amount);\n        //remove the amount the user has from the platform, then send it to them\n        userAltBalances[_token][msg.sender] -= _amount;\n        IERC20(_token).transfer(msg.sender, _amount);\n    }\n\n    //withdraw function for the platform token\n    function withdrawTokensCore(uint256 _amount) public payable {\n        require(_amount > 0, \"Amount must be more than 0\");\n        //ensure user has enough funds\n        require(userCoreBalances[msg.sender] >= _amount);\n        //remove funds from platform and send to user\n        userCoreBalances[msg.sender] -= _amount;\n        payable(msg.sender).transfer(_amount);\n    }\n\n    function updateUniqueTokensDeposited(address _user, address _token)\n        internal\n    {\n        if (userAltBalances[_token][_user] <= 0) {\n            uniqueTokensDeposited[_user] = uniqueTokensDeposited[_user] + 1;\n        }\n    }\n\n    function tokenIsAllowed(address _token) public view returns (bool) {\n        for (\n            uint256 allowedTokensIndex = 0;\n            allowedTokensIndex < allowedTokens.length;\n            allowedTokensIndex++\n        ) {\n            if (allowedTokens[allowedTokensIndex] == _token) {\n                return true;\n            }\n        }\n        return false;\n    }\n\n    function addAllowedTokens(address _token) public onlyOwner {\n        allowedTokens.push(_token);\n    }\n\n    function setPriceFeedContract(\n        address _token,\n        address _priceFeed,\n        bool isChainToken\n    ) public onlyOwner {\n        if (isChainToken) {\n            chainTokenPriceFeed = _priceFeed;\n        } else {\n            tokenPriceFeedMapping[_token] = _priceFeed;\n        }\n    }\n\n    //the receive takes care of supporting the chain token\n    receive() external payable {\n        userCoreBalances[msg.sender] += msg.value;\n        uniqueTokensDeposited[msg.sender] += 1;\n    }\n\n    function getUserTotalValue(address _user) public view returns (uint256) {\n        uint256 totalValue = 0;\n        require(uniqueTokensDeposited[_user] > 0, \"No tokens deposited!\");\n        //get value from the manually-added tokens\n        if (allowedTokens.length > 0) {\n            for (\n                uint256 allowedTokensIndex = 0;\n                allowedTokensIndex < allowedTokens.length;\n                allowedTokensIndex++\n            ) {\n                totalValue =\n                    totalValue +\n                    getUserSingleTokenValue(\n                        _user,\n                        allowedTokens[allowedTokensIndex],\n                        false\n                    );\n            }\n        }\n        //get value from the chain token\n        totalValue =\n            totalValue +\n            getUserSingleTokenValue(_user, address(0), true);\n        return totalValue;\n    }\n\n    function getUserSingleTokenValue(\n        address _user,\n        address _token,\n        bool isChainToken\n    ) public view returns (uint256) {\n        if (isChainToken) {\n            (uint256 price, uint256 decimals) = getTokenValue(_token, true);\n            return ((userCoreBalances[_user] * price) / (10**decimals));\n        } else {\n            if (uniqueTokensDeposited[_user] <= 0) {\n                return 0;\n            }\n            // price of the token * userAltBalances[_token][user]\n            (uint256 price, uint256 decimals) = getTokenValue(_token, false);\n            return // 10000000000000000000 ETH\n            // ETH/USD -> 10000000000\n            // 10 * 100 = 1,000\n            ((userAltBalances[_token][_user] * price) / (10**decimals));\n        }\n    }\n\n    function getTokenValue(address _token, bool isChainToken)\n        public\n        view\n        returns (uint256, uint256)\n    {\n        // priceFeedAddress\n        address priceFeedAddress;\n        if (isChainToken) {\n            priceFeedAddress = chainTokenPriceFeed;\n        } else {\n            priceFeedAddress = tokenPriceFeedMapping[_token];\n        }\n        AggregatorV3Interface priceFeed = AggregatorV3Interface(\n            priceFeedAddress\n        );\n        (, int256 price, , , ) = priceFeed.latestRoundData();\n        uint256 decimals = uint256(priceFeed.decimals());\n        return (uint256(price), decimals);\n    }\n\n    //option for any user to create a bet? for now: onlyOwner and randNum bets\n    //condNum: the number the random num achieved has to be higher for side 0 to win\n    //expTime: time till the bet expires/concludes in seconds(?)\n    //every bet needs to keep track of: sides, users on each side, amount users put on the bet (an either side)\n    //total pool\n    //store each Bet into a mapping ID->bet\n    struct BetStruct {\n        address[] side0Users;\n        mapping(address => uint256) side0Balances;\n        uint256 side0Total;\n        address[] side1Users;\n        mapping(address => uint256) side1Balances;\n        uint256 side1Total;\n        uint256 condNum;\n        uint256 expTime;\n        uint256 ID;\n    }\n    mapping(uint256 => BetStruct) public bets;\n\n    function createBet(uint256 condNum, uint256 expTime) public onlyOwner {}\n\n    //the same user that made this transaction should be the same user making the bet\n    //meaning we can use sender.address to look at their userBalance\n    function placeBet(\n        uint256 betID,\n        uint256 amount,\n        address tokenAddress\n    ) public {\n        //BetStruct bet = bets[betID];\n        //check if user has enough for amount of token\n        //if so, update the bet to include them AFTER subtracting from their balance\n    }\n}\n",
  "sourcePath": "contracts/BetContract.sol",
  "type": "contract"
}